:020000040000FA
:100000000C9436000C945E000C945E000C945E0020
:100010000C945E000C945E000C945E000C945E00E8
:100020000C945E000C945E000C945E000C945E00D8
:100030000C945E000C945E000C945E000C945E00C8
:100040000C94F5010C945E000C9465020C943F0234
:100050000C945E000C945E000C945E000C945E00A8
:100060000C945E000C945E00A8025D0411241FBE77
:10007000CFEFD8E0DEBFCDBF11E0A0E0B1E0EAEC09
:10008000FFE002C005900D92AA33B107D9F721E035
:10009000AAE3B1E001C01D92AC3FB207E1F710E066
:1000A000C5E3D0E004C02197FE010E94E005C433FF
:1000B000D107C9F70E94EC020C94D8070C940000F9
:1000C0003FB7F89480913F0190914001A091410188
:1000D000B091420126B5A89B05C02F3F19F00196AB
:1000E000A11DB11D3FBFBA2FA92F982F8827BC0192
:1000F000CD01620F711D811D911D42E0660F771FBA
:10010000881F991F4A95D1F70895AF92BF92CF9259
:10011000DF92EF92FF920F931F93CF93DF936C01C7
:100120007B018B01040F151FEB015E01AE18BF08A8
:10013000C017D10759F06991D601ED91FC9101905A
:10014000F081E02DC6010995892B79F7C501DF9172
:10015000CF911F910F91FF90EF90DF90CF90BF90C4
:10016000AF900895FC01538D448D252F30E0842FEE
:1001700090E0821B930B541710F0CF9608950197CF
:100180000895FC01918D828D981761F0A28DAE0FBC
:10019000BF2FB11D5D968C91928D9F5F9F73928F43
:1001A00090E008958FEF9FEF0895FC01918D828D6F
:1001B000981731F0828DE80FF11D858D90E008953C
:1001C0008FEF9FEF0895FC01918D228D892F90E094
:1001D000805C9F4F821B91098F739927089583E458
:1001E00091E00E94E30021E0892B09F420E0822FB6
:1001F000089580E090E0892B29F00E94EF008111A2
:100200000C9400000895FC01A48DA80FB92FB11D16
:10021000A35ABF4F2C91848D90E001968F7399273C
:10022000848FA689B7892C93A089B1898C9183701A
:1002300080648C93938D848D981306C00288F38913
:10024000E02D80818F7D80830895EF92FF920F9340
:100250001F93CF93DF93EC0181E0888F9B8D8C8D72
:1002600098131AC0E889F989808185FF15C09FB766
:10027000F894EE89FF896083E889F9898081837029
:10028000806480839FBF81E090E0DF91CF911F91D8
:100290000F91FF90EF900895F62E0B8D10E00F5FF9
:1002A0001F4F0F731127E02E8C8D8E110CC00FB6CF
:1002B00007FCFACFE889F989808185FFF5CFCE0167
:1002C0000E940301F1CFEB8DEC0FFD2FF11DE35ADE
:1002D000FF4FF0829FB7F8940B8FEA89FB898081EA
:1002E0008062CFCFCF93DF93EC01888D8823B9F064
:1002F000AA89BB89E889F9898C9185FD03C0808131
:1003000086FD0DC00FB607FCF7CF8C9185FFF2CFAD
:10031000808185FFEDCFCE010E940301E9CFDF91FF
:10032000CF910895CF93DF93EC0188819981009755
:1003300011F00E948206198218821D821C821B8283
:100340001A82DF91CF910895FC01808191810097FD
:1003500011F00C94820608950F931F93CF93DF93AF
:10036000EC0188819981009759F02A813B812617F9
:10037000370730F081E0DF91CF911F910F91089501
:100380008B016F5F7F4F0E940B07009759F0998395
:1003900088831B830A832C813D81232B59F7FC0121
:1003A0001082E8CF80E0E7CFEF92FF920F931F9388
:1003B000CF93DF93EC017B018A01BA010E94AC016B
:1003C00081110BC0CE010E949201CE01DF91CF912D
:1003D0001F910F91FF90EF9008951D830C83B7013B
:1003E000888199810E94D107F0CF1F920F920FB69A
:1003F0000F9211242F933F938F939F93AF93BF93AB
:1004000080913B0190913C01A0913D01B0913E0152
:1004100030913A0123E0230F2D3758F50196A11DA5
:10042000B11D20933A0180933B0190933C01A0932E
:100430003D01B0933E0180913F0190914001A09118
:100440004101B09142010196A11DB11D80933F0170
:1004500090934001A0934101B0934201BF91AF91AD
:100460009F918F913F912F910F900FBE0F901F90F2
:10047000189526E8230F0296A11DB11DD2CF1F9219
:100480000F920FB60F9211242F933F934F935F93C8
:100490006F937F938F939F93AF93BF93EF93FF934C
:1004A00083E491E00E940301FF91EF91BF91AF912E
:1004B0009F918F917F916F915F914F913F912F917C
:1004C0000F900FBE0F901F9018951F920F920FB6AE
:1004D0000F9211242F938F939F93EF93FF93E091AB
:1004E0005301F09154018081E0915901F0915A013A
:1004F00082FD1BC0908180915C018F5F8F73209182
:100500005D01821741F0E0915C01F0E0ED5BFE4F90
:10051000958F80935C01FF91EF919F918F912F9127
:100520000F900FBE0F901F9018958081F4CFFC01A3
:10053000118210821382128215821482FB010190B3
:100540000020E9F73197AF01461B570B0C94D401FB
:10055000E3E4F1E01382128288EE93E0A0E0B0E0E1
:1005600084839583A683B7838EE091E09183808313
:1005700085EC90E09587848784EC90E09787868768
:1005800080EC90E0918B808B81EC90E0938B828B60
:1005900082EC90E0958B848B86EC90E0978B868B39
:1005A000118E128E138E148E6CE171E080EE91E04C
:1005B0000E94970260E271E086EE91E00E9497024D
:1005C00068E271E08CEE91E00E9497026EE271E0C9
:1005D00082EF91E00C949702CF93DF93CDB7DEB713
:1005E00068970FB6F894DEBF0FBECDBF789484B580
:1005F000826084BD84B5816084BD85B5826085BD1F
:1006000085B5816085BD80916E00816080936E00AC
:10061000109281008091810082608093810080919E
:10062000810081608093810080918000816080934F
:1006300080008091B10084608093B1008091B0000F
:1006400081608093B00080917A00846080937A000A
:1006500080917A00826080937A0080917A00816034
:1006600080937A0080917A00806880937A0010925B
:10067000C10080E480937C0080917A008064809344
:100680007A0080917A0086FDFCCF609178007091AD
:100690007900072E000C880B990B611571058105F7
:1006A000910511F00E940805E0915301F091540169
:1006B00082E08083E0914F01F09150011082E0913F
:1006C0005101F09152018FEC808310925B01E09117
:1006D0005701F091580186E08083E0915501F09137
:1006E0005601808180618083E0915501F09156012F
:1006F000808188608083E0915501F091560180816E
:1007000080688083E0915501F091560180818F7D52
:10071000808395E6892E912CA12CB12C8E010F5F40
:100720001F4F20E0222E20E0322E0E94B90424E048
:1007300030E040E050E00E9446056B010E94B904A1
:100740001C8A1B8A1E8A1D8A188E1F8AA501940185
:100750000E944605CB014AE0B8010E941105F8014C
:1007600001900020E9F73197AF01401B510BB80110
:10077000CE0143960E94D4011A8219821C821B82E8
:100780001E821D8226E02C9DF0012D9DF00D11246E
:10079000E052FE4F608171816115710529F044813D
:1007A0005581C8010E94D401ED80FE808FEFE81AC8
:1007B000F80AB701C8010E94AC01882309F475C08A
:1007C00029813A818D819E8165E371E0820F931FBB
:1007D0000E94D107FE82ED82CB88DC88C114D1044F
:1007E00009F467C0EF88F88CE114F104B1F08D8151
:1007F0009E81E80EF91EB701C8010E94AC01882352
:1008000009F457C029813A818D819E81B601820FFA
:10081000931F0E94D107FE82ED824D815E81698126
:100820007A8183E491E00E94850042E050E067E332
:1008300071E083E491E00E948500C8010E94A40158
:10084000CE0143960E94A4010E9460002B013C014E
:1008500088EEC82E83E0D82EE12CF12C0E94600097
:100860006419750986099709683E734081059105E9
:10087000A8F321E0C21AD108E108F10888EE480E79
:1008800083E0581E611C711CC114D104E104F10401
:1008900029F72114310409F448CF0E94EF0088237E
:1008A00009F443CF0E94000040CFC8010E9492018A
:1008B00093CFC8010E949201B0CF82EF91E00E94D5
:1008C000A4018CEE91E00E94A40186EE91E00E94CA
:1008D000A40180EE91E00C94A4018F929F92AF92BC
:1008E000BF92CF92DF92EF92FF92CF93DF93EC0112
:1008F000688179818A819B816115710581059105E6
:1009000021F464E279ED8BE597E02DE133EF41E0EE
:1009100050E00E94460549015A019B01AC01A7EA3B
:10092000B1E40E9465056B017C01ACEEB4EFA5015A
:1009300094010E947305C60ED71EE81EF91EF7FE2D
:1009400006C081E0C81AD108E10880E8F80AC88228
:10095000D982EA82FB82C701B6019F77DF91CF91EE
:10096000FF90EF90DF90CF90BF90AF909F908F90CF
:1009700008958F929F92AF92BF92CF92DF92EF92A3
:10098000FF926091000170910101809102019091AC
:100990000301611571058105910521F464E279ED8A
:1009A0008BE597E02DE133EF41E050E00E944605F2
:1009B00049015A019B01AC01A7EAB1E40E94650517
:1009C0006B017C01ACEEB4EFA50194010E947305AC
:1009D000C60ED71EE81EF91EF7FE06C081E0C81A33
:1009E000D108E10880E8F80AC0920001D092010124
:1009F000E0920201F0920301C701B6019F77FF90D8
:100A0000EF90DF90CF90BF90AF909F908F90089520
:100A100060930001709301018093020190930301A0
:100A20000895BB274A3031F4992322F4BDE2909512
:100A300081959F4F0C941D05BB27FB015527AA27C5
:100A4000880F991FAA1FA41710F0A41B839550515B
:100A5000B9F7A05DAA3308F0A95DA193009779F7D3
:100A6000B111B1931192CB010C943605DC01FC015C
:100A7000672F71917723E1F7329704C07C916D93D2
:100A800070836291AE17BF07C8F30895052E97FBD8
:100A90001EF400940E945D0557FD07D00E94AF052B
:100AA00007FC03D04EF40C945D05509540953095AD
:100AB00021953F4F4F4F5F4F0895909580957095CA
:100AC00061957F4F8F4F9F4F08950E94D105A59F3D
:100AD000900DB49F900DA49F800D911D1124089539
:100AE000B7FF0C9465050E946505821B930B089562
:100AF0002F923F924F925F926F927F928F929F922E
:100B0000AF92BF92CF92DF92EF92FF920F931F931B
:100B1000CF93DF93CDB7DEB7CA1BDB0B0FB6F894CC
:100B2000DEBF0FBECDBF09942A88398848885F840C
:100B30006E847D848C849B84AA84B984C884DF807D
:100B4000EE80FD800C811B81AA81B981CE0FD11D61
:100B50000FB6F894DEBF0FBECDBFED010895A1E240
:100B60001A2EAA1BBB1BFD010DC0AA1FBB1FEE1F27
:100B7000FF1FA217B307E407F50720F0A21BB30B72
:100B8000E40BF50B661F771F881F991F1A9469F7EE
:100B900060957095809590959B01AC01BD01CF014A
:100BA0000895A29FB001B39FC001A39F700D811D46
:100BB0001124911DB29F700D811D1124911D089566
:100BC000EE0FFF1F0590F491E02D09940F931F93F2
:100BD000CF93DF938230910510F482E090E0E091B2
:100BE000FA01F091FB0130E020E0B0E0A0E03097A6
:100BF00099F42115310509F44AC0281B390B24301A
:100C00003105D8F58A819B816115710589F1FB0158
:100C100093838283FE0111C040815181028113813F
:100C200048175907E0F04817590799F4109761F0F1
:100C300012960C93129713961C933296CF01DF9164
:100C4000CF911F910F9108950093FA011093FB012A
:100C5000F4CF2115310551F04217530738F0A9019F
:100C6000DB019A01BD01DF01F801C1CFEF01F9CF2E
:100C70009093FB018093FA01CDCFFE01E20FF31FA9
:100C8000819391932250310939832883D7CF2091C2
:100C9000F8013091F901232B41F4209106013091A4
:100CA00007013093F9012093F8012091040130915C
:100CB00005012115310541F42DB73EB740910801DA
:100CC00050910901241B350BE091F801F091F901D5
:100CD000E217F307A0F42E1B3F0B2817390778F013
:100CE000AC014E5F5F4F2417350748F04E0F5F1F72
:100CF0005093F9014093F801819391939FCFF0E0D5
:100D0000E0E09CCFCF93DF930097E9F0FC013297AE
:100D100013821282A091FA01B091FB01ED0130E043
:100D200020E01097A1F420813181820F931F209140
:100D3000F8013091F9012817390709F061C0F093E3
:100D4000F901E093F801DF91CF910895EA01CE1700
:100D5000DF07E8F54A815B819E0141155105B1F736
:100D6000E901FB83EA8349915991C40FD51FEC1720
:100D7000FD0761F4808191810296840F951FE9013E
:100D800099838883828193819B838A83F0E0E0E06A
:100D900012968D919C9113970097B9F52D913C91E6
:100DA0001197CD010296820F931F2091F801309187
:100DB000F9012817390739F6309751F51092FB01E0
:100DC0001092FA01B093F901A093F801BCCFD3833C
:100DD000C28340815181840F951FC817D90761F4E0
:100DE0004E5F5F4F88819981480F591F518340831F
:100DF0008A819B81938382832115310509F0B0CFCD
:100E0000F093FB01E093FA019ECFFD01DC01C0CF1E
:100E100013821282D7CFB0E0A0E0E1E1F7E00C94BA
:100E20007A058C01009751F4CB010E94E6058C01F4
:100E3000C801CDB7DEB7E0E10C949605FC01E60FE2
:100E4000F71F9C0122503109E217F30708F49DC0F7
:100E5000D901CD91DC911197C617D70798F0C5300D
:100E6000D10530F3CE0104978617970708F3C61B08
:100E7000D70B2297C193D1936D937C93CF010E949E
:100E80008206D6CF5B01AC1ABD0A4C018C0E9D1EAA
:100E9000A091FA01B091FB01512C412CF12CE12CD5
:100EA000109731F58091F8019091F9018815990515
:100EB00009F05CC04616570608F058C0809104013E
:100EC00090910501009741F48DB79EB740910801BC
:100ED00050910901841B950BE817F90708F055C0DC
:100EE000F093F901E093F801F90171836083A0CFD9
:100EF0008D919C91119712966C90129713967C90FD
:100F00001397A815B90559F56C0142E0C40ED11C20
:100F1000CA14DB0420F1AC014A195B09DA0112960C
:100F2000159780F06282738251834083D9016D935B
:100F30007C93E114F10471F0D7011396FC93EE93C6
:100F4000129776CF22968C0F9D1FF9019183808393
:100F5000F301EFCFF093FB01E093FA0169CF48165C
:100F6000590608F42C017D01D3019ACFCB010E94D0
:100F7000E6057C01009749F0AE01B8010E94C80760
:100F8000C8010E948206870153CF10E000E050CFD5
:100F9000FB01DC0102C001900D9241505040D8F796
:100FA0000895FB01DC0101900D920020E1F7089506
:100FB00010E0C5E3D0E004C0FE010E94E0052196E8
:100FC000C633D107C9F7F894FFCF01000000000035
:100FD000FC0180000000000025018500B2007201C4
:100FE000E300C100D5004C757A0048756D656461F9
:100FF000640043616C6F72005669656E746F002CFB
:04100000000D0A00D5
:107E0000112484B714BE81FFF0D085E080938100F7
:107E100082E08093C00088E18093C10086E0809377
:107E2000C20080E18093C4008EE0C9D0259A86E02C
:107E300020E33CEF91E0309385002093840096BBD3
:107E4000B09BFECF1D9AA8958150A9F7CC24DD24C4
:107E500088248394B5E0AB2EA1E19A2EF3E0BF2EE7
:107E6000A2D0813461F49FD0082FAFD0023811F036
:107E7000013811F484E001C083E08DD089C08234E0
:107E800011F484E103C0853419F485E0A6D080C0E4
:107E9000853579F488D0E82EFF2485D0082F10E0AE
:107EA000102F00270E291F29000F111F8ED06801E7
:107EB0006FC0863521F484E090D080E0DECF843638
:107EC00009F040C070D06FD0082F6DD080E0C81688
:107ED00080E7D80618F4F601B7BEE895C0E0D1E017
:107EE00062D089930C17E1F7F0E0CF16F0E7DF06D8
:107EF00018F0F601B7BEE89568D007B600FCFDCFD4
:107F0000A601A0E0B1E02C9130E011968C91119780
:107F100090E0982F8827822B932B1296FA010C0160
:107F200087BEE89511244E5F5F4FF1E0A038BF0790
:107F300051F7F601A7BEE89507B600FCFDCF97BE46
:107F4000E89526C08437B1F42ED02DD0F82E2BD052
:107F50003CD0F601EF2C8F010F5F1F4F84911BD097
:107F6000EA94F801C1F70894C11CD11CFA94CF0C13
:107F7000D11C0EC0853739F428D08EE10CD085E9AC
:107F80000AD08FE07ACF813511F488E018D01DD067
:107F900080E101D065CF982F8091C00085FFFCCF94
:107FA0009093C60008958091C00087FFFCCF809118
:107FB000C00084FD01C0A8958091C6000895E0E648
:107FC000F0E098E1908380830895EDDF803219F02E
:107FD00088E0F5DFFFCF84E1DECF1F93182FE3DFCA
:107FE0001150E9F7F2DF1F91089580E0E8DFEE27F6
:047FF000FF270994CA
:027FFE00040479
:00000001FF
